:04000000FEEF3FF0E0
:100800000000720ED36E95908C90030E1C6E080E35
:100810001B6E770EE82EFED71B2EFCD71C2EFAD7A8
:1008200000008CEC05F01F0E0E6E1E0E0F6E60ECBD
:1008300004F01D6A240E1F6420EF04F022EF04F080
:100840002EEF04F0250E1F6028EF04F02AEF04F0CD
:100850002EEF04F0010E1D6E4CEF04F0240E1F1855
:10086000D8A435EF04F037EF04F039EF04F02AEFA5
:1008700004F0250E1F18D8A440EF04F042EF04F056
:100880004CEF04F0060E1E6048EF04F04AEF04F04F
:100890004CEF04F02AEF04F01DB002D08C9001D090
:1008A0008C80060E1C6E130E1B6EAE0EE82EFED74D
:1008B0001B2EFCD71C2EFAD711EF04F0FEEF3FF0F1
:1008C000A0EC05F0CC0E42EC05F0BE0E42EC05F0BB
:1008D0006AEC05F0176E6AEC05F0186E1850106E91
:1008E0001750196E10C01AF00E50D96EDA6A19C07E
:1008F00010F01AC011F0040E126ED890113210329E
:10090000122E7DEF04F01050DF6E0F0E1914106ED2
:10091000000E1A14116E10C001F011C002F0036A2B
:10092000046A710E056E020E066E000E076E000E52
:10093000086E0DEC05F001C013F002C014F003C006
:1009400015F004C016F00F50D96EDA6A13C001F02A
:1009500014C002F015C003F016C004F0E80E056ED6
:10096000030E066E000E076E000E086EBBEC04F060
:100970000150DF6E1200000E096E000E0A6E000EAE
:100980000B6E000E0C6E0550061007100810D8B440
:10099000CCEF04F0CEEF04F004EF05F0010E0D6E85
:1009A000D8EF04F0D89005360636073608360D2AFB
:1009B00008AEDDEF04F0DFEF04F0D2EF04F0D890E2
:1009C00009360A360B360C360550015C06500258C3
:1009D0000750035808500458D8A0F1EF04F0F3EF83
:1009E00004F0FCEF04F00550015E0650025A075077
:1009F000035A0850045A0980D89008320732063248
:100A000005320D2EDFEF04F009C001F00AC002F03C
:100A10000BC003F00CC004F01200000E096E000EB3
:100A20000A6E000E0B6E000E0C6E01A01AEF05F0A0
:100A30001CEF05F024EF05F00550092606500A22A8
:100A400007500B2208500C22D89005360636073680
:100A50000836D890043203320232013201500210BB
:100A600003100410D8A437EF05F039EF05F015EFA7
:100A700005F009C001F00AC002F00BC003F00CC081
:100A800004F01200016E026A01A049EF05F04BEF7D
:100A900005F056EF05F093908A90040EE82EFED7ED
:100AA0009380240EE82EFED75EEF05F093908A9097
:100AB000280EE82EFED7938000D000D0D8900132C7
:100AC000022A070E026467EF05F069EF05F044EFB4
:100AD00005F01200016A026AD890013293908A9060
:100AE00000D000D09380080EE82EFED781A07BEFC7
:100AF00005F07DEF05F07EEF05F0018E1E0EE82E6D
:100B0000FED7022A070E026488EF05F08AEF05F08F
:100B10006CEF05F001501200A0EC05F0CC0E42EC99
:100B200005F0440E42EC05F0080E046E9D0E036EB7
:100B3000060EE82EFED7032EFCD7042EFAD712009D
:100B400093908A90C00E00D0E82EFDD793802E0E91
:100B5000E82EFED700D08150A40E00D0E82EFDD79D
:080B60001200000101EF04F096
:047FFC00B1EF05F0EC
:020000040030CA
:0800000000091E1EFF0181FF33
:00000001FF
