:04000000FEEF3FF0E0
:107B2C00000EF86E0001EAEF3DF093809382800E18
:107B3C00C76E280EC66EC56A130EC86E9E961200CE
:107B4C0013EC3EF0C584C5B4AEEF3DF0B0EF3DF0A4
:107B5C00A9EF3DF09E961200036E780EFDEC3DF001
:107B6C00000ECCEC3DF00350CCEC3DF0A6EC3DF01F
:107B7C001200036E780EFDEC3DF0400ECCEC3DF0A7
:107B8C000350CCEC3DF0A6EC3DF01200026E13EC71
:107B9C003EF002C0C9FF9EA6D6EF3DF0D8EF3DF0F7
:107BAC00D1EF3DF09E961200056E0550B009B2EC77
:107BBC003DF004500F0BB2EC3DF004380F0B0F0BE3
:107BCC001009B2EC3DF012009BEC3DF0A8EC3EF03D
:107BDC004BEC3EF0000E0A6EF00E0B6E7F0E0C6E30
:107BEC00000E2AEC3EF0F9EF3DF0FEEF3FF0026E96
:107BFC0013EC3EF0C580C5B006EF3EF008EF3EF04A
:107C0C0001EF3EF002C0C9FF9EA60FEF3EF011EF50
:107C1C003EF00AEF3EF09E961200C7B018EF3EF011
:107C2C001AEF3EF013EF3EF0C5CF01F01F0E011618
:107C3C00D8A423EF3EF025EF3EF013EF3EF0030EF9
:107C4C00E82EFED7000012000D6E0AC004F00D5095
:107C5C00DAEC3DF03CEF3EF00BC0F6FF0CC0F7FF4A
:107C6C000800F5506DEC3EF00B4A0C2A0BC0F6FFE9
:107C7C000CC0F7FF0800F5500009D8A448EF3EF0FF
:107C8C004AEF3EF032EF3EF01200056A0550B009A3
:107C9C00B2EC3DF0000EB2EC3DF0100EB2EC3DF04B
:107CAC00046A000EBFEC3DF0042A7F0E046461EF01
:107CBC003EF063EF3EF057EF3EF0052A070E0564E9
:107CCC006AEF3EF06CEF3EF04CEF3EF01200086EA7
:107CDC001F0E086474EF3EF076EF3EF07EEF3EF040
:107CEC007E0E08647CEF3EF07EEF3EF080EF3EF0BF
:107CFC00200E086E096A0850050D150EF324046E4B
:107D0C007E0EF420056E09500426000E0522600E2E
:107D1C000424066EFF0E0520076E06C0F6FF07C092
:107D2C00F7FF0800F550BFEC3DF0092A040E09647A
:107D3C00A2EF3EF0A4EF3EF081EF3EF0000EBFEC60
:107D4C003DF01200020E076E040E066EBA0EE82EFF
:107D5C00FED7062EFCD7072EFAD700D0AE0EB2EC0B
:107D6C003DF0D50EB2EC3DF0800EB2EC3DF0A80E1D
:107D7C00B2EC3DF03F0EB2EC3DF0D30EB2EC3DF068
:107D8C00000EB2EC3DF0400EB2EC3DF08D0EB2ECBC
:107D9C003DF0140EB2EC3DF0200EB2EC3DF0000EB6
:107DAC00B2EC3DF0A10EB2EC3DF0C80EB2EC3DF0E1
:107DBC00DA0EB2EC3DF0120EB2EC3DF0810EB2ECEC
:107DCC003DF0CF0EB2EC3DF0D90EB2EC3DF0F10E21
:107DDC00B2EC3DF0DB0EB2EC3DF0400EB2EC3DF0FF
:107DEC00A40EB2EC3DF0A60EB2EC3DF0AF0EB2EC30
:107DFC003DF01A0E066EF80EE82EFED7062EFCD7B6
:107E0C0000D04BEC3EF0120000000000000000001F
:107E1C005F00000007000700147F147F14242A7FE2
:107E2C002A122313086462364955225000050300B8
:107E3C0000001C2241000041221C00082A1C2A08B8
:107E4C0008083E0808005030000008080808080020
:107E5C006060000020100804023E5149453E00427B
:107E6C007F400042615149462141454B3118141263
:107E7C007F1027454545393C4A4949300171090570
:107E8C00033649494936064949291E003636000051
:107E9C000056360000000814224114141414144126
:107EAC00221408000201510906324979413E7E1123
:107EBC0011117E7F494949363E414141227F414162
:107ECC00221C7F494949417F090909013E41494921
:107EDC007A7F0808087F00417F41002040413F0124
:107EEC007F081422417F404040407F0204027F7F84
:107EFC000408107F3E4141413E7F090909063E417D
:107F0C0051215E7F09192946464949493101017FB2
:107F1C0001013F4040403F1F2040201F3F40384060
:107F2C003F631408146307087008076151494543FF
:107F3C00007F41410002040810200041417F0004F1
:107F4C000201020440404040400001020400205461
:107F5C005454787F4844443838444444203844448A
:107F6C00487F3854545418087E090102081454549C
:107F7C003C7F0804047800447D40002040443D00D0
:107F8C007F1028440000417F40007C041804787C5A
:107F9C000804047838444444387C14141408081435
:107FAC0014187C7C080404084854545420043F449E
:107FBC0040203C4040207C1C2040201C3C40304059
:107FCC003C44281028440C5050503C4464544C44BD
:107FDC00000836410000007F000000413608001008
:107FEC0008081008486F6C61206D756E646F000096
:047FFC0096EF3DF0CF
:020000040030CA
:08000000000C1F1EFF8181FFAF
:00000001FF
