:04000000FEEF3FF0E0
:1008000000000000000000005F000000070007007B
:10081000147F147F14242A7F2A122313086462365B
:10082000495522500005030000001C2241000041F0
:10083000221C00082A1C2A0808083E08080050301C
:100840000000080808080800606000002010080484
:10085000023E5149453E00427F40004261514946B7
:100860002141454B311814127F1027454545393C2D
:100870004A49493001710905033649494936064953
:1008800049291E486F6C61206D756E646F004F4C76
:070890004544204F4B00001E
:10089800020E076E040E066EBA0EE82EFED7062E5E
:1008A800FCD7072EFAD700D0AE0E8BEC05F0D50E8C
:1008B8008BEC05F0800E8BEC05F0A80E8BEC05F0A8
:1008C8003F0E8BEC05F0D30E8BEC05F0000E8BEC95
:1008D80005F0400E8BEC05F08D0E8BEC05F0140E38
:1008E8008BEC05F0200E8BEC05F0000E8BEC05F080
:1008F800A10E8BEC05F0C80E8BEC05F0DA0E8BEC34
:1009080005F0120E8BEC05F0810E8BEC05F0CF0E86
:100918008BEC05F0D90E8BEC05F0F10E8BEC05F0A5
:10092800DB0E8BEC05F0400E8BEC05F0A40E8BEC87
:1009380005F0A60E8BEC05F0AF0E8BEC05F01A0E49
:10094800066EF80EE82EFED7062EFCD700D0DDEC9A
:1009580004F01200056E1F0E0564B5EF04F0B7EF42
:1009680004F0BFEF04F07E0E0564BDEF04F0BFEFA6
:1009780004F0C1EF04F0200E056E066A0550050D5F
:10098800F350010F0624046E600E042604C0F6FF1F
:100998000800F5507EEC05F0062A040E0664D7EF31
:1009A80004F0D9EF04F0C2EF04F0000E7EEC05F07D
:1009B8001200056A0550B0098BEC05F0000E8BECAF
:1009C80005F0100E8BEC05F0046A000E7EEC05F0C5
:1009D800042A7F0E0464F3EF04F0F5EF04F0E9EF66
:1009E80004F0052A070E0564FCEF04F0FEEF04F09E
:1009F800DEEF04F01200096E07C004F0095060EC45
:100A080005F00EEF05F008C0F6FF0800F550AEEC53
:100A180004F0082A08C0F6FF0800F5500009D8A419
:100A280018EF05F01AEF05F007EF05F01200A4EC37
:100A380005F04CEC04F0DDEC04F0000E076E830EBC
:100A4800086E000EFFEC04F0000E076E8E0E086EA6
:100A5800020EFFEC04F02FEF05F0FEEF3FF0C7B0F9
:100A680038EF05F03AEF05F033EF05F0C5CF01F0A8
:100A78001F0E0116D8A443EF05F045EF05F033EF3C
:100A880005F0030EE82EFED700001200026E33ECCC
:100A980005F0C580C5B053EF05F055EF05F04EEFF2
:100AA80005F002C0C9FF9EA65CEF05F05EEF05F0F9
:100AB80057EF05F09E961200056E0550B0098BECB5
:100AC80005F004500F0B8BEC05F004380F0B0F0BDF
:100AD80010098BEC05F01200026E33EC05F002C031
:100AE800C9FF9EA67AEF05F07CEF05F075EF05F0DB
:100AF8009E961200036E780E4AEC05F0400E70ECDC
:100B080005F0035070EC05F098EC05F01200036E48
:100B1800780E4AEC05F0000E70EC05F0035070EC0E
:100B280005F098EC05F0120033EC05F0C584C5B467
:100B3800A0EF05F0A2EF05F09BEF05F09E961200DE
:100B480093809382800EC76E280EC66EC56A130EF8
:100B5800C86E9E961200000EF86E080EF76E000121
:040B68001BEF05F08A
:047FFC00AFEF05F0EE
:020000040030CA
:08000000000C1F1EFF8181FFAF
:00000001FF
