:04000000FEEF3FF0E0
:1008000000000C6E000E0D6E000E0E6E000E0F6ED0
:10081000000E106E116A0C506AEC04F001500D26A7
:1008200002500E22000E0F22000E1022030E086E40
:10083000980EE82EFED7082EFCD7112A070E116459
:1008400024EF04F026EF04F00BEF04F00DC008F0E5
:100850000EC009F00FC00AF010C00BF0040E36EF06
:1008600004F0D8900B320A3209320832E82E31EF08
:1008700004F008C006F009C007F01200720ED36E33
:1008800095908C908DEC04F0000E01EC04F006C005
:1008900014F007C015F02D0E145C010E1558D8A0E9
:1008A00054EF04F056EF04F059EF04F08C805AEF47
:1008B00004F08C90030E136E080E126E770EE82E65
:1008C000FED7122EFCD7132EFAD7000044EF04F007
:1008D000FEEF3FF0056E05C003F0D8900336D890C8
:1008E0000336C250C30B0310C26E210EE82EFED792
:1008F0000000C282C2B27FEF04F081EF04F07AEF11
:1009000004F0C350C4CF03F0046A03C004F0036AC8
:100910000310016E0450026E120092800E0EC16E22
:10092000BD0EC06E010EC26E0D0E016EFC0EE82EE5
:0E093000FED7012EFCD7120000013EEF04F0AE
:047FFC009CEF04F002
:020000040030CA
:0800000000091F1EFF0181FF32
:00000001FF
