:04000000FEEF3FF0E0
:100800000000720ED36E9590010E046EF20E9CECF9
:1008100004F0270E046EF40E9CEC04F0FD0E87EC41
:1008200004F00A6EFE0E87EC04F00B6E0A50066EA2
:100830000B50086E06C009F0310E085C750E0958A1
:10084000D8A025EF04F027EF04F02AEF04F08C8005
:100850002BEF04F08C90060E076E130E066EAE0E94
:10086000E82EFED7062EFCD7072EFAD70EEF04F09F
:10087000FEEF3FF0026E036A02BE41EF04F045EF67
:1008800004F0016A012A46EF04F0016A8A50011857
:10089000FE0B01188A6E8A82BCEC04F08A92BCECD2
:1008A00004F0D8900236032A070E03645AEF04F0CE
:1008B0005CEF04F03CEF04F093808A82BCEC04F01F
:1008C0008A9293901200016A9380026A8A82BCEC39
:1008D00004F0D890013681A070EF04F072EF04F0BC
:1008E00073EF04F001808A92BCEC04F0022A070E38
:1008F00002647DEF04F07FEF04F066EF04F0939064
:100900008A808A82BCEC04F08A9201501200046E44
:10091000ABEC04F0EC0E3AEC04F004503AEC04F0CA
:10092000ABEC04F0ED0E3AEC04F063EC04F0056E71
:10093000B6EC04F005501200056EABEC04F0EC0EC2
:100940003AEC04F005503AEC04F004503AEC04F0B0
:10095000B6EC04F01200939093928A808A82BCECE9
:1009600004F08A90BCEC04F08A9212008A908A8289
:10097000BCEC04F08A801200030EE82EFED70000C3
:080980001200000101EF04F078
:047FFC00C1EF04F0DD
:020000040030CA
:0800000000091F1EFF0181FF32
:00000001FF
