:04000000FEEF3FF0E0
:100800000000720ED36E959095928C908C92B0EC05
:1008100004F0000E50EC04F006C016F007C017F00C
:10082000010E50EC04F006C014F007C015F017508C
:1008300009E13C0E165CD8A020EF04F022EF04F092
:1008400030EF04F0175007E1510E165CD8B02BEFD3
:1008500004F02DEF04F030EF04F08C8031EF04F061
:100860008C90F50E145C010E1558D8A03AEF04F0E8
:100870003CEF04F03FEF04F08C8240EF04F08C92E8
:10088000030E136E080E126E770EE82EFED7122E90
:10089000FCD7132EFAD7000009EF04F0FEEF3FF06B
:1008A0000C6E000E0D6E000E0E6E000E0F6E000E22
:1008B000106E116A0C508DEC04F001500D260250A0
:1008C0000E22000E0F22000E1022030E086E980E4C
:1008D000E82EFED7082EFCD7112A070E116473EFFD
:1008E00004F075EF04F05AEF04F00DC008F00EC0EC
:1008F00009F00FC00AF010C00BF0040E85EF04F0F1
:10090000D8900B320A3209320832E82E80EF04F018
:1009100008C006F009C007F01200056E05C003F01C
:10092000D8900336D8900336C250C30B0310C26E62
:10093000210EE82EFED70000C282C2B2A2EF04F060
:10094000A4EF04F09DEF04F0C350C4CF03F0046A99
:1009500003C004F0036A0310016E0450026E12001B
:10096000928092820D0EC16EBD0EC06E010EC26EDF
:100970000D0E016EFC0EE82EFED7012EFCD71200E4
:06098000000101EF04F08C
:047FFC00C0EF04F0DE
:020000040030CA
:0800000000091F1EFF0181FF32
:00000001FF
