:04000000FEEF3FF0E0
:100800000000720ED36E9590959295948C908C9278
:100810008C94C8EC04F0000E68EC04F006C018F0EC
:1008200007C019F0010E68EC04F006C014F007C010
:1008300015F0020E68EC04F006C016F007C017F0C1
:10084000195009E13C0E185CD8A029EF04F02BEFF9
:1008500004F039EF04F0195007E1510E185CD8B0DC
:1008600034EF04F036EF04F039EF04F08C803AEF07
:1008700004F08C90F50E145C010E1558D8A043EFCF
:1008800004F045EF04F048EF04F08C8249EF04F0E7
:100890008C92910E165C010E1758D8A052EF04F0FE
:1008A00054EF04F057EF04F08C8458EF04F08C946C
:1008B000030E136E080E126E770EE82EFED7122E60
:1008C000FCD7132EFAD700000BEF04F0FEEF3FF039
:1008D0000C6E000E0D6E000E0E6E000E0F6E000EF2
:1008E000106E116A0C50A5EC04F001500D26025058
:1008F0000E22000E0F22000E1022030E086E980E1C
:10090000E82EFED7082EFCD7112A070E11648BEFB4
:1009100004F08DEF04F072EF04F00DC008F00EC08B
:1009200009F00FC00AF010C00BF0040E9DEF04F0A8
:10093000D8900B320A3209320832E82E98EF04F0D0
:1009400008C006F009C007F01200056E05C003F0EC
:10095000D8900336D8900336C250C30B0310C26E32
:10096000210EE82EFED70000C282C2B2BAEF04F018
:10097000BCEF04F0B5EF04F0C350C4CF03F0046A39
:1009800003C004F0036A0310016E0450026E1200EB
:100990009280928292840C0EC16EBD0EC06E010ECA
:1009A000C26E0D0E016EFC0EE82EFED7012EFCD796
:0809B0001200000101EF04F048
:047FFC00D9EF04F0C5
:020000040030CA
:0800000000091F1EFF0181FF32
:00000001FF
