:040000002DEF3FF0B1
:107E5600F5EF3FF0720ED36E070ED56EF00E956EEF
:107E66008C6A93809382F18EF18CF292F288F28E74
:107E7600010E606E020E616E626A81B2D7EC3FF04F
:107E86006050010A11E06050020A2DE06050030ABA
:107E96004FE0AAEF3FF06150636EE8EC3FF0632ECF
:107EA60050EF3FF040EF3FF06250000A08E06250AA
:107EB600010A09E06250020A0AE06EEF3FF0010E85
:107EC6008C6E73EF3FF0020E8C6E73EF3FF0040E74
:107ED6008C6E73EF3FF0080E8C6E626A4EEF3FF0C9
:107EE600622A4EEF3FF06250000A0BE06250010A30
:107EF6000CE06250020A0DE06250030A0EE094EFB5
:107F06003FF0010E8C6E98EF3FF0030E8C6E98EFEB
:107F16003FF0070E8C6E98EF3FF00F0E8C6E98EFC9
:107F26003FF08C6A626A4EEF3FF0622A4EEF3FF0F6
:107F36006250000A02E0A5EF3FF00A0E8C6E622A3C
:107F46004EEF3FF0050E8C6E626A4EEF3FF06250C8
:107F5600000A0EE06250010A0FE06250020A10E0C9
:107F66006250030A11E06250040A12E0CFEF3FF0BC
:107F7600010E8C6ED4EF3FF0020E8C6ED4EF3FF004
:107F8600040E8C6ED4EF3FF0080E8C6ED4EF3FF0EB
:107F9600040E8C6ED4EF3FF0020E8C6E626A4EEFCA
:107FA6003FF0622A4EEF3FF0E8EC3FF06150010AE5
:107FB60006E06150020A06E0010E616E1200020E32
:107FC600616E1200040E616E1200D59EFC0ED76E15
:107FD6006F0ED66EF294D58EF2A4EFEF3FF0D59EDB
:107FE600F2941200F2A21000F292602A6050050A82
:0A7FF60002E1010E606E626A1000E5
:020000040030CA
:0400000000091E1EB7
:02000500018177
:060008000FC00FE00F40E5
:00000001FF
