:0400000007EF00F016
:0A000800018247ED05F052EF05F00C
:10080000003132334134353642373839432A3023C8
:10081000445465636C61646F206C6973746F3A0053
:0108200000D7
:10082200046A030E046418EF04F01AEF04F01CEFDC
:1008320004F098EF04F004C002F0010E036E022AE5
:1008420025EF04F0D8900336022E23EF04F0035074
:10085200FF0AF0098A6E210EE82EFED70000056A13
:1008620005C002F0040E0226010E036E022A3CEFBE
:1008720004F0D8900336022E3AEF04F003508114AC
:100882000009D8A447EF04F049EF04F08CEF04F01C
:10089200340E026EF20EE82EFED7022EFCD705C0F1
:1008A20002F0040E0226010E036E022A5BEF04F030
:1008B200D8900336022E59EF04F003508114000938
:1008C200D8A466EF04F068EF04F08CEF04F005C0E2
:1008D20002F0040E0226010E036E022A73EF04F0E8
:1008E200D8900336022E71EF04F0035081140009F0
:1008F200D8B47EEF04F080EF04F068EF04F0045007
:10090200040DF350010F0524026E02C0F6FF080029
:10091200F55099EF04F0052A030E056493EF04F0F5
:1009220095EF04F031EF04F0042A12EF04F0000E08
:100932001200720ED36E956A8C6A966A8D6AF00EF8
:10094200936E0F0E8A6E0F0EC16EE5EC04F0000E70
:10095200056E000EC8EC04F0110E056E01EC05F0F8
:10096200000E056E010EC8EC04F011EC04F00A6EE4
:100972000A50D8B4BFEF04F0C1EF04F0B6EF04F0B0
:100982000A5038EC05F0B6EF04F007EF00F0066EFF
:100992000650D8B4CFEF04F0D1EF04F0D9EF04F051
:1009A200C00E0524076E086A000E0822DFEF04F06D
:1009B200800E0524076E086A000E082207C009F09F
:1009C200095028EC05F01200340E056EF20EE82EE6
:1009D200FED7052EFCD7380E28EC05F00C0E28ECBD
:1009E20005F0060E28EC05F0010E28EC05F0060EC7
:1009F200056E300EE82EFED7052EFCD700D0120071
:100A02000AEF05F005C0F6FF0800F55038EC05F0D6
:100A1200052A05C0F6FF0800F5500009D8A414EF16
:100A220005F016EF05F003EF05F012008D84030EBA
:100A3200026E980EE82EFED7022EFCD78D94030E7E
:100A4200026E980EE82EFED7022EFCD71200046E1C
:100A52008D908D9204C08CFF17EC05F0060E036E8C
:100A6200300EE82EFED7032EFCD700D01200046E03
:100A72008D808D9204C08CFF17EC05F0030E036E7F
:100A8200980EE82EFED7032EFCD712000600F2A223
:100A92004DEF05F04FEF05F050EF05F0F2920192A5
:100AA200110001900192000EF86E080EF76E00011F
:040AB2009AEF04F0C3
:020000040030CA
:0800000000081E1EFF0181FF34
:00000001FF
