:107F7C00C0EF3FF0700ED36E936A8A6A050E646F81
:107F8C008A80010E636FF0EC3FF0632FC9EF3FF076
:107F9C008A90010E636FF0EC3FF0632FD1EF3FF04E
:107FAC00642FC6EF3FF0020E646F8A80020E636F7F
:107FBC00F0EC3FF0632FDEEF3FF08A90020E636F20
:107FCC00F0EC3FF0632FE6EF3FF0642FDBEF3FF078
:107FDC00C4EF3FF0080E606FFA0E616FFA0E626F1D
:107FEC00622FF6EF3FF0612FF4EF3FF0602FF2EFCE
:047FFC003FF0120040
:020000040030CA
:0400000000091F1EB6
:020005008181F7
:060008000FC00FE00F40E5
:00000001FF
