:107F8200C3EF3FF0700ED36E936A8A6A050E646F78
:107F92008A80010E636FF0EC3FF0632FCCEF3FF06D
:107FA2008A90010E636FF0EC3FF0632FD4EF3FF045
:107FB200642FC9EF3FF0020E646F8A80010E636F77
:107FC200F0EC3FF0632FE1EF3FF08A90020E636F17
:107FD200F0EC3FF0632FE9EF3FF0DEEF3FF0080EE9
:107FE200606FFA0E616FFA0E626F622FF6EF3FF06A
:0E7FF200612FF4EF3FF0602FF2EF3FF012002E
:020000040030CA
:0400000000091F1EB6
:020005008181F7
:060008000FC00FE00F40E5
:00000001FF
