:04000000FEEF3FF0E0
:1069DE00030EE82EFED70000120093908A908A8252
:1069EE00EFEC34F08A80EFEC34F012009280928259
:1069FE0092840C0EC16EBD0EC06E010EC26E1200E0
:106A0E00939093928A808A82EFEC34F08A90EFEC26
:066A1E0034F08A92120020
:106A2500AED580A83FD300408D142000A1C8DA124E
:106A350081CFD9F1DB40A4A6AF056E07EC35F07820
:106A45000E52EC36F0400E52EC36F0055052EC3654
:106A5500F0F4EC34F01200056E07EC35F0780E52C8
:106A6500EC36F0000E52EC36F0055052EC36F0F4F0
:106A7500EC34F01200076E0750B0092EEC35F00625
:106A8500500F0B2EEC35F006380F0B10092EEC3598
:106A9500F01200086E000E066E08503DEC35F00948
:106AA5006A000E1FEC35F0092A7F0E09645DEF358B
:106AB500F05FEF35F053EF35F01200066E07EC3559
:106AC500F0EC0E52EC36F0076E0750D8B46DEF358A
:106AD500F06FEF35F073EF35F0F4EC34F07BEF3514
:106AE500F0065052EC36F0055052EC36F06FEF35AB
:106AF500F01200250EF66E6A0EF76E000EF86E00A7
:106B0500EE60F010EE19F00900F5CFEEFFE550E16B
:106B150050FAE100EE79F0120EEE6AE806FDE15E4C
:106B25006A000EF86E0001A7EF39F0096A000E063B
:106B35006E09503DEC35F0086A000E1FEC35F00883
:106B45002A7F0E0864A9EF35F0ABEF35F09FEF35DE
:106B5500F0092A070E0964B2EF35F0B4EF35F09964
:106B6500EF35F012000F6E0CC006F00F503DEC35FE
:106B7500F0C7EF35F00DC0F6FF0EC0F7FF0800F5C2
:106B85005094EC37F00D4A0E2A0DC0F6FF0EC0F7F3
:106B9500FF0800F5500009D8A4D3EF35F0D5EF353F
:106BA500F0BDEF35F01200056E05C003F0D8900377
:106BB50036D8900336C250C30B0310C26E210EE8BF
:106BC5002EFED70000C282C2B2EBEF35F0EDEF35F5
:106BD500F0E6EF35F0C350C4CF03F0046A03C004F8
:106BE500F0036A0310016E0450026E1200020E0BD0
:106BF5006E860E0A6E990EE82EFED70A2EFCD70B6E
:106C05002EFAD7000020EE60F010EE0CF0180EDB27
:106C1500CFE3FFE806FCE2256A25500C0FD96EDAB2
:106C25006ADF502EEC35F0252A180E25641DEF3647
:106C3500F01FEF36F00FEF36F098EC35F012003319
:106C45000E056E010E066ED00E5BEC38F00009D80D
:106C5500B42FEF36F031EF36F034EF36F0010E5148
:106C6500EF36F0600E3318D8B43BEF36F03DEF3613
:106C7500F03FEF36F031EF36F013EC39F0010E0549
:106C85006EF20E60EC35F0270E056EF40E60EC35F5
:106C9500F0A00E056EF50E60EC35F0000E12000248
:106CA5006E046A939002BE5AEF36F05EEF36F0013D
:106CB5006A012A5FEF36F0016A8A500118FE0B015E
:106CC500188A6E8A82EFEC34F08A92EFEC34F0D8B1
:106CD500900236042A070E046473EF36F075EF361A
:106CE500F054EF36F093808A808A82EFEC34F0001E
:106CF5000E81B0010E036E8A92EFEC34F09390038F
:106D050050120003500410D8B48BEF36F08DEF36D7
:106D1500F0B1EF36F0010E056E95EF36F0D8900321
:106D2500360436052A04AE9AEF36F09CEF36F0911C
:106D3500EF36F00350015C04500258D8A0A5EF3699
:106D4500F0A7EF36F0ABEF36F00350015E045002CA
:106D55005AD89004320332052E9CEF36F001C0015B
:106D6500F002C002F01200000E096E000E0A6E005D
:106D75000E0B6E000E0C6E01A0C3EF36F0C5EF369C
:106D8500F0CDEF36F00550092606500A2207500BC4
:106D95002208500C22D8900536063607360836D814
:106DA5009004320332023201320150021003100402
:106DB50010D8A4E0EF36F0E2EF36F0BEEF36F0097A
:106DC500C001F00AC002F00BC003F00CC004F012C1
:106DD50000026E036A9380046AD89003368A82EFB4
:106DE500EC34F081A0F9EF36F0FBEF36F0FCEF362E
:106DF500F003808A92EFEC34F0042A070E0464064F
:106E0500EF37F008EF37F0EFEF36F093900250D8F8
:106E1500A40FEF37F013EF37F0016A012A14EF37AB
:106E2500F0016A8A500118FE0B01188A6E8A82EFFA
:106E3500EC34F08A92EFEC34F003501200066A004D
:106E45000E056E03500410D8B42BEF37F02DEF3735
:106E5500F055EF37F0010E076E35EF37F0D8900398
:106E6500360436072A04AE3AEF37F03CEF37F031F7
:106E7500EF37F0D890053606360350015C04500212
:106E850058D8A048EF37F04AEF37F04FEF37F00307
:106E950050015E0450025A0580D89004320332072F
:106EA5002E3CEF37F005C001F006C002F0120010CD
:106EB5006E000E0C6EC50E0D6E7F0E0E6E000EB5BD
:106EC500EC35F0000E0C6ED00E0D6E7F0E0E6E02C0
:106ED5000EB5EC35F0000E0C6EE70E0D6E7F0E0E46
:106EE5006E040EB5EC35F0000E0C6EE10E0D6E7FE6
:106EF5000E0E6E060EB5EC35F01050D8A485EF37A2
:106F0500F087EF37F093EF37F0030E4CEC35F000D8
:106F15000E0C6EBA0E0D6E7F0E0E6E030EB5EC35B1
:106F2500F012000A6E1F0E0A649BEF37F09DEF37D3
:106F3500F0A5EF37F07A0E0A64A3EF37F0A5EF3727
:106F4500F0A7EF37F03F0E0A6E0B6A0A50050DF3F6
:106F55000EF324066E7D0EF420076E0B50062600F8
:106F65000E0722600E0624086EFF0E0720096E0824
:106F7500C0F6FF09C0F7FF0800F5501FEC35F00B10
:106F85002A040E0B64C9EF37F0CBEF37F0A8EF37C3
:106F9500F0000E1FEC35F012000C6E000E0D6E00A9
:106FA5000E0E6E000E0F6E000E106E116A0C50D68E
:106FB500EC35F001500D2602500E22000E0F220076
:106FC5000E1022030E086E980EE82EFED7082EFC32
:106FD500D7112A070E1164F2EF37F0F4EF37F0D925
:106FE500EF37F00DC008F00EC009F00FC00AF01021
:106FF500C00BF0040E04EF38F0D8900B320A3209BA
:10700500320832E82EFFEF37F008C006F009C00756
:10701500F01200156E166A0D500E10D8A415EF3833
:10702500F017EF38F03AEF38F0300E0F6E162A43AE
:10703500EF38F016500F0FD96EDA6A0DC001F00E59
:10704500C002F0046A0A0E036E84EC36F00150307B
:107055000FDF6E162A0DC001F00EC002F0046A0A99
:107065000E036E21EC37F001C00DF002C00EF00DDD
:10707500500E10D8A441EF38F043EF38F01CEF382C
:10708500F00CC006F015503DEC35F051EF38F01618
:10709500500F0FD96EDA6ADF5094EC37F0160616EA
:1070A50028D8A458EF38F05AEF38F04AEF38F012E4
:1070B500000B6E07EC35F0EC0E52EC36F00C6E0C56
:1070C50050D8B468EF38F06AEF38F06FEF38F0F465
:1070D500EC34F0010EB2EF38F00B5052EC36F0F410
:1070E500EC34F007EC35F0ED0E52EC36F00C6E0C8E
:1070F50050D8B480EF38F082EF38F084EF38F06A7A
:10710500EF38F00D6AA6EF38F005500D24D96EDA88
:107115006A0D50076E086AFF0E0624096E0A6AFF9B
:107125000E0A22075009180AE108500A18D8B49E19
:10713500EF38F0A1EF38F0010EA2EF38F0000EEBBA
:10714500EC36F0DF6E0D2A06500D5CD8A0ADEF3899
:10715500F0AFEF38F087EF38F0F4EC34F0000E12B2
:1071650000066A04BEBBEF38F0B9EF38F0C1EF385E
:10717500F0036C041ED8B0042A010E066E02BEC8C8
:10718500EF38F0C6EF38F0CEEF38F0016C021ED8BC
:10719500B0022A010E061A086A000E076E03500493
:1071A50010D8B4D8EF38F0DAEF38F002EF39F00143
:1071B5000E056EE2EF38F0D89003360436052A0442
:1071C500AEE7EF38F0E9EF38F0DEEF38F0D89007AA
:1071D5003608360350015C04500258D8A0F5EF3844
:1071E500F0F7EF38F0FCEF38F00350015E04500281
:1071F5005A0780D89004320332052EE9EF38F0069D
:1072050050D8B408EF39F00AEF39F00EEF39F0072E
:107215006C081ED8B0082A07C001F008C002F01299
:1072250000110E056E1A0E066E880E5BEC38F00026
:1072350009D8B420EF39F022EF39F024EF39F0A660
:10724500EF39F012500E6E11500001896F0EC08A91
:10725500F0135014C00EF00F6A0EC00FF00E6A0E38
:1072650010876F0F50886F155016C00EF00F6A0EFD
:10727500C00FF00E6A0E10856F0F50866F320E0527
:107285006E010E066EA10E5BEC38F00009D8B44E07
:10729500EF39F050EF39F052EF39F0A6EF39F0320F
:1072A500C083F00001846B2B0E056E070E066EE1A0
:1072B5000E5BEC38F00009D8B463EF39F065EF39AF
:1072C500F067EF39F0A6EF39F02B502CC00EF00F18
:1072D5006A0EC00FF00E6A0E1000017F6F0F50800E
:1072E5006F2DC081F0826B2E500E6E0F6A0E3A0F15
:1072F5003AF00E0F160E500F0B0F12F00E0E162F42
:10730500C010F00F0E101610500E107D6F0F507E2E
:107315006F30500E6E0F6A0E3A0F3AF00E0F160EC2
:10732500500F0B0F12F00E0E162FC010F0103A0F63
:107335000E101610500E107B6F0F507C6F31507968
:107345006F7A6B79BF7A071200596A000E586E5B27
:107355006A000E5A6E720ED36E9590959295948C26
:10736500908C928C94FDEC34F0F9EC35F022EC36EF
:10737500F00009D8B4C1EF39F0C4EF39F0010EC5FA
:10738500EF39F0000E5E6E5E505AEC37F0000ECF0E
:10739500EC37F006C05CF007C05DF0010ECFEC37AE
:1073A500F006C054F007C055F0020ECFEC37F006DA
:1073B500C056F007C057F05CC001F05DC002F00395
:1073C5006A046AF40E056E010E066E000E076E0065
:1073D5000E086EB6EC36F00B0EF6EF39F0D89004C9
:1073E50032033202320132E82EF1EF39F001C05199
:1073F500F002C052F05E50D8B403EF3AF005EF3A10
:10740500F017EF3AF0580E0E6E5A0E0F6E8EEC3BDB
:10741500F00009D8B411EF3AF013EF3AF017EF3A4C
:10742500F05E6A000E5AEC37F0536A5D5009E13C94
:107435000E5C5CD8A021EF3AF023EF3AF030EF3A3A
:10744500F05D5007E1510E5C5CD8B02CEF3AF02EA0
:10745500EF3AF030EF3AF0010E536E53B002D08C94
:107465009001D08C80F50E545C010E5558D8B03E75
:10747500EF3AF042EF3AF04F6A4F2A43EF3AF04FB6
:107485006A4F468C504F18FD0B4F188C6E910E5657
:107495005C010E5758D8B052EF3AF056EF3AF04F1C
:1074A5006A4F2A57EF3AF04F6A4F464F468C504F76
:1074B50018FB0B4F188C6E51C017F052C018F058BE
:1074C500C019F059C01AF05AC01BF05BC01CF0542B
:1074D500C01DF055C01EF056C01FF057C020F05E0D
:1074E500C021F085EC3AF0060E506E130E4F6EAECD
:1074F5000EE82EFED74F2EFCD7502EFAD7C9EF39FE
:10750500F0FEEF3FF0010E4CEC35F0000E0C6E175F
:10751500C00DF018C00EF0010E0CEC38F018500735
:10752500E1640E175CD8B09AEF3AF09CEF3AF0B5EB
:10753500EF3AF0185007E10A0E175CD8B0A5EF3AFC
:10754500F0A7EF3AF0ACEF3AF0256A060E246EAFDD
:10755500EF3AF0256A0C0E246E24C022F025C023D4
:10756500F0B8EF3AF0236A120E226E22C00CF0F149
:107575000E0D6E7F0E0E6E010EB5EC35F0030E4C42
:10758500EC35F02150D8B4CAEF3AF0CCEF3AF04DD3
:10759500EF3BF019C001F01AC002F0046A0A0E03AD
:1075A5006EB3EC38F001C02EF002C02FF0000E0CC7
:1075B5006E2EC00DF02FC00EF0030E0CEC38F02F20
:1075C5005007E1640E2E5CD8B0EBEF3AF0EDEF3AE0
:1075D500F006EF3BF02F5007E10A0E2E5CD8B0F60F
:1075E500EF3AF0F8EF3AF0FDEF3AF0296A060E2887
:1075F5006E00EF3BF0296A0C0E286E28C026F02994
:10760500C027F009EF3BF0276A120E266E26C00C44
:10761500F0D90E0D6E7F0E0E6E030EB5EC35F03CF7
:107625000E0C6E1BC00DF01CC00EF0030E0CEC38DA
:10763500F01C5007E1640E1B5CD8B024EF3BF0262C
:10764500EF3BF03FEF3BF01C5007E10A0E1B5CD807
:10765500B02FEF3BF031EF3BF036EF3BF02D6A42B8
:107665000E2C6E39EF3BF02D6A480E2C6E2CC02A7D
:10767500F02DC02BF042EF3BF02B6A4E0E2A6E2AFE
:10768500C00CF0F80E0D6E7F0E0E6E030EB5EC35C8
:10769500F056EF3BF0000E0C6EBA0E0D6E7F0E0E1F
:1076A5006E030EB5EC35F0050E4CEC35F0000E0C06
:1076B5006E1DC00DF01EC00EF0050E0CEC38F00767
:1076C5000E4CEC35F0000E0C6E1FC00DF020C00EF8
:1076D500F0070E0CEC38F0910E1F5C010E2058D807
:1076E500A077EF3BF079EF3BF084EF3BF01E0E0CFB
:1076F5006EEC0E0D6E7F0E0E6E070EB5EC35F08D31
:10770500EF3BF01E0E0C6EF50E0D6E7F0E0E6E0726
:107715000EB5EC35F01200230E056E080E066EF759
:107725000E5BEC38F00009D8B49BEF3BF09DEF3BC6
:10773500F0A0EF3BF0010EF8EF3EF027C010F0117E
:107745006A126A136A040ED890103611361236136F
:1077550036E82EA6EF3BF026C014F0156A166A1718
:107765006A0C0ED8901436153616361736E82EB430
:10777500EF3BF010501410186E11501510196E12C1
:107785005016101A6E135017101B6E28C01CF01CD3
:107795003A0F0E1C161C501810476E1950486E1AD9
:1077A50050496E1B504A6E0B0E106E000189511127
:1077B5006E8A51126E136A146AD8901134156E12BE
:1077C50034166E1334176E1434186E030E196E4783
:1077D500C01AF048C01BF049C01CF04AC01DF01982
:1077E50066F7EF3BF0FFEF3BF01D341D321C321BFB
:1077F500321A32192EF2EF3BF015501A5C016E1653
:10780500501B58026E17501C58036E18501D580413
:107815006E87C005F088C006F0000E06BEFF0E0795
:107825006E086EB6EC36F010661BEF3CF023EF3CAD
:10783500F004340432033202320132102E16EF3CCA
:10784500F001C02BF002C02CF003C02DF004C02EB7
:10785500F00C0E106E00018951116E8A51126E13D3
:107865006A146A040E156E47C016F048C017F04931
:10787500C018F04AC019F0156643EF3CF04BEF3CD9
:10788500F019341932183217321632152E3EEF3CE4
:10789500F01150165C016E12501758026E135018F5
:1078A50058036E14501958046E000189511A6E8AD6
:1078B500511B6E1C6A1D6A040E1E6E47C01FF048E0
:1078C500C020F049C021F04AC022F01E666DEF3C91
:1078D500F075EF3CF022342232213220321F321E65
:1078E5002E68EF3CF01A501F5C056E1B50205806A1
:1078F5006E1C502158076E1D502258086EB6EC3686
:10790500F0106688EF3CF090EF3CF004340432034D
:107915003202320132102E83EF3CF001C043F002F7
:10792500C044F003C045F004C046F00E0E106E854D
:10793500C001F086C002F0000E02BEFF0E036E0409
:107945006E43C005F044C006F045C007F046C008C8
:10795500F0B6EC36F01066B2EF3CF0BAEF3CF0044E
:10796500340432033202320132102EADEF3CF00105
:10797500C043F002C044F003C045F004C046F043E4
:10798500502B243F6E44502C20406E45502D2041F5
:107995006E46502E20426E080E106E3FC001F0401C
:1079A500C002F041C003F042C004F0050E056E00B0
:1079B5000E066E000E076E000E086EB6EC36F080F1
:1079C5000E0124116E000E0220126E000E0320130C
:1079D5006E000E0420146E1066F3EF3CF0FBEF3CD6
:1079E500F014341432133212321132102EEEEF3CF1
:1079F500F00E50D96EDA6A11C0DEFF12C0DDFF2A23
:107A05005029C010F0116A126A136A12C013F011DE
:107A1500C012F010C011F0106A10102F6E11503006
:107A25006E1250316E1350326E000E3F244B6ED4E1
:107A35000E40204C6EFE0E41204D6EFF0E42204E34
:107A45006E7BC001F07CC002F0000E02BEFF0E038B
:107A55006E046E4BC005F04CC006F04DC007F04EED
:107A6500C008F0B6EC36F000017D51106E7E511164
:107A75006E126A136A140ED8901036113612361328
:107A850036E82E3EEF3DF02FC014F030C015F03132
:107A9500C016F032C017F00E0ED8901436153616F3
:107AA500361736E82E4FEF3DF01050145C186E1166
:107AB500501558196E125016581A6E135017581B38
:107AC5006E0150185C4B6E025019584C6E03501ADB
:107AD500584D6E04501B584E6E0F0E106E000E4B17
:107AE50024116E400E4C20126E000E4D20136E00B8
:107AF5000E4E20146E106682EF3DF08AEF3DF014B5
:107B0500341432133212321132102E7DEF3DF01142
:107B1500C04BF012C04CF013C04DF014C04EF00B2A
:107B25000E106E81C001F082C002F0036A046A4B38
:107B3500C005F04CC006F04DC007F04EC008F0B6C9
:107B4500EC36F01066A9EF3DF0B1EF3DF0043404DA
:107B550032033202320132102EA4EF3DF0000E0145
:107B650024336E800E0220346E000E0320356E0025
:107B75000E0420366E0A0E106E79C001F07AC0022E
:107B8500F0000E02BEFF0E036E046E4BC005F04CF6
:107B9500C006F04DC007F04EC008F0B6EC36F01048
:107BA50066D7EF3DF0DFEF3DF004340432033202D7
:107BB500320132102ED2EF3DF001C037F002C0384D
:107BC500F003C039F004C03AF00A0E106E33C0015C
:107BD500F034C002F035C003F036C004F037C005FC
:107BE500F038C006F039C007F03AC008F0B6EC36F8
:107BF500F0106600EF3EF008EF3EF0043404320367
:107C05003202320132102EFBEF3DF0000E01243B13
:107C15006E000E02203C6E200E03203D6E000E0409
:107C2500203E6E3BC001F03CC002F03DC003F03E7B
:107C3500C004F04BC005F04CC006F04DC007F04E37
:107C4500C008F0B6EC36F001C04BF002C04CF003B2
:107C5500C04DF004C04EF07FC001F080C002F000BE
:107C65000E02BEFF0E036E046E4BC005F04CC0063F
:107C7500F04DC007F04EC008F0B6EC36F001C04B31
:107C8500F002C04CF003C04DF004C04EF00D0E10D4
:107C95006EFF0E4B14016E1F0E4C14026E000E4D3E
:107CA50014036E000E4E14046E7FC005F080C006EE
:107CB500F0000E06BEFF0E076E086EB6EC36F0102D
:107CC5006667EF3EF06FEF3EF00434043203320294
:107CD500320132102E62EF3EF00D0E116E4BC012C6
:107CE500F04CC013F04DC014F04EC015F011667E77
:107CF500EF3EF086EF3EF015341532143213321292
:107D050032112E79EF3EF0015012244B6E025013C2
:107D1500204C6E035014204D6E045015204E6E04F9
:107D25000E106E4BC011F04CC012F04DC013F04E4A
:107D3500C014F01066A1EF3EF0A9EF3EF014341424
:107D450032133212321132102E9CEF3EF011C04B1D
:107D5500F012C04CF013C04DF014C04EF04EBEC032
:107D6500EF3EF04E500CE14B04900E4C58010E4D79
:107D750058D8A0C0EF3EF0C2EF3EF0CAEF3EF0008B
:107D85000E4B6E900E4C6E010E4D6E000E4E6E4EED
:107D9500BED1EF3EF0CFEF3EF0D9EF3EF0000E4BF7
:107DA5006E000E4C6E000E4D6E000E4E6E0A0E10DD
:107DB5006E4BC011F04CC012F04DC013F04EC01404
:107DC500F01066E8EF3EF0F0EF3EF0143414321395
:107DD5003212321132102EE3EF3EF00F50D96EDA27
:107DE5006A11C0DEFF12C0DDFF000E1200000000A8
:107DF50000000000005F00000007000700147F146A
:107E05007F14242A7F2A12231308646236495522D7
:107E1500500005030000001C2241000041221C0007
:107E2500082A1C2A0808083E0808005030000008E7
:107E350008080808006060000020100804023E5190
:107E450049453E00427F4000426151494621414536
:107E55004B311814127F1027454545393C4A49498D
:107E65003001710905033649494936064949291E34
:107E75000036360000005636000000081422411472
:107E85001414141441221408000201510906324940
:107E950079413E7E1111117E7F494949363E414166
:107EA50041227F4141221C7F494949417F090909F6
:107EB500013E4141497A7F0808087F00417F410022
:107EC5002040413F017F081422417F404040407FD0
:107ED5000204027F7F0408107F3E4141413E7F0935
:107EE5000909063E4151215E7F091929464649493E
:107EF500493101017F01013F4040403F1F204020A3
:107F05001F3F4038403F631408146303047804039B
:107F150061514945430000000000000000000000D9
:107F2500000000000000000000404040404000000C
:107F350000000020545454787F4844443838444461
:107F45004420384444487F3854545418087E090165
:107F550002081454543C7F0804047800447D400012
:107F65002040443D007F1028440000417F40007CB4
:107F7500041804787C0804047838444444387C1494
:107F8500141408081414187C7C0804040848545474
:107F95005420043F4440203C4040407C1C2040206D
:107FA5001C3C4030403C44281028440C5050503C68
:107FB5004464544C4453696E20424D453238300078
:107FC50054656D70204C4D33353A0048756D6564C8
:107FD50061643A006F432048756D3A0041697265E6
:107FE5003A004C757A3A004D414C4F00206F4300E2
:067FF5004F4B00250000C7
:047FFC007CEF35F0F1
:020000040030CA
:0800000000091F1EFF0181FF32
:00000001FF
