:04000000FEEF3FF0E0
:100800000041495245004D414C4F0054454D500068
:100810004C555A004F4B00300000720ED36E8AECDC
:1008200006F01FEC06F0000EF2EC04F006C01BF020
:1008300007C01CF0010EF2EC04F006C01DF007C06A
:100840001EF0020EF2EC04F006C01FF007C020F00C
:10085000F40E166E010E176E16501B02F3CF18F031
:10086000F4CF19F01C02F350192617501B02F35055
:1008700019260A0E1A6ED890193218321A2E3BEF2A
:1008800004F018C021F019C022F0E6EC05F0000ECB
:10089000076E0B0E086E000E03EC06F0000E0A6EDB
:1008A00021C00BF022C00CF0020E98EC04F0000EF8
:1008B000076E100E086E040E03EC06F0280E0A6E8A
:1008C0001DC00BF01EC00CF0040E98EC04F0000EDE
:1008D000076E010E086E060E03EC06F0910E1F5C0B
:1008E000010E2058D8A077EF04F079EF04F082EFE2
:1008F00004F0280E076E060E086E060E03EC06F0D6
:1009000089EF04F0280E076E140E086E060E03EC35
:1009100006F0060E176E130E166EAE0EE82EFED7FC
:10092000162EFCD7172EFAD713EF04F0FEEF3FF088
:10093000136E156A000E146E0B500C10D8A4A3EFA2
:1009400004F0A5EF04F0CDEF04F00AC007F0170E95
:10095000086E135003EC06F0F1EF04F014500D0F85
:10096000D96EDA6A0BC001F00CC002F0046A0A0EFC
:10097000036E68EC05F00150300FDF6E144A152A43
:100980000BC001F00CC002F0046A0A0E036E2FECDB
:1009900005F001C00BF002C00CF00B500C10D8A4F5
:1009A000D4EF04F0D6EF04F0AEEF04F00AC005F087
:1009B000135048EC06F0E4EF04F014500D0FD96E1C
:1009C000DA6ADF5037EC06F01406D8A015061428B2
:1009D00006E11528D8A4EFEF04F0F1EF04F0DDEF05
:1009E00004F012000C6E000E0D6E000E0E6E000E66
:1009F0000F6E000E106E116A0C50C3EC05F0015022
:100A00000D2602500E22000E0F22000E1022030EA1
:100A1000086E980EE82EFED7082EFCD7112A070E76
:100A2000116415EF05F017EF05F0FCEF04F00DC0B1
:100A300008F00EC009F00FC00AF010C00BF0040E51
:100A400027EF05F0D8900B320A3209320832E82E2F
:100A500022EF05F008C006F009C007F01200066A90
:100A6000000E056E03500410D8B439EF05F03BEFCB
:100A700005F063EF05F0010E076E43EF05F0D89027
:100A800003360436072A04AE48EF05F04AEF05F0B6
:100A90003FEF05F0D890053606360350015C045050
:100AA0000258D8A056EF05F058EF05F05DEF05F0BD
:100AB0000350015E0450025A0580D890043203327C
:100AC000072E4AEF05F005C001F006C002F0120043
:100AD00003500410D8B46FEF05F071EF05F095EFF7
:100AE00005F0010E056E79EF05F0D8900336043657
:100AF000052A04AE7EEF05F080EF05F075EF05F0F6
:100B00000350015C04500258D8A089EF05F08BEF28
:100B100005F08FEF05F00350015E0450025AD890A3
:100B200004320332052E80EF05F001C001F002C04F
:100B300002F01200026E036A02BEA1EF05F0A5EFFB
:100B400005F0016A012AA6EF05F0016A8A50011832
:100B5000FE0B01188A6E8A829BEC06F08A929BEC4F
:100B600006F0D8900236032A070E0364BAEF05F0A8
:100B7000BCEF05F09CEF05F093808A829BEC06F0B9
:100B80008A9293901200056E05C003F0D890033648
:100B9000D8900336C250C30B0310C26E210EE82E4C
:100BA000FED70000C282C2B2D8EF05F0DAEF05F03E
:100BB000D3EF05F0C350C4CF03F0046A03C004F0C0
:100BC000036A0310016E0450026E1200086A000EE0
:100BD000056E085048EC06F0076A000E66EC06F059
:100BE000072A7F0E0764F7EF05F0F9EF05F0EDEF48
:100BF00005F0082A070E086400EF06F002EF06F081
:100C0000E7EF05F01200096E07C005F0095048EC47
:100C100006F012EF06F008C0F6FF0800F55037ECBA
:100C200006F0082A08C0F6FF0800F5500009D8A40D
:100C30001CEF06F01EEF06F00BEF06F01200020E9E
:100C40000A6E040E096EBA0EE82EFED7092EFCD7E6
:100C50000A2EFAD700D0AE0E57EC06F0A60E57ECCF
:100C600006F0AF0E57EC06F0E6EC05F01200056A50
:100C7000FF0E66EC06F0052A040E056442EF06F04E
:100C800044EF06F038EF06F0000E66EC06F01200B6
:100C9000066E0650B00957EC06F005500F0B57ECE6
:100CA00006F005380F0B100957EC06F01200046E21
:100CB00075EC06F0780E9AEC05F0000E9AEC05F053
:100CC00004509AEC05F080EC06F01200046E75EC0E
:100CD00006F0780E9AEC05F0400E9AEC05F0045000
:100CE0009AEC05F080EC06F01200939093928A80C3
:100CF0008A829BEC06F08A909BEC06F08A921200A6
:100D000093908A928A909BEC06F08A829BEC06F084
:100D10008A8012009280928292840C0EC16EBD0E67
:100D2000C06E010EC26E1200000EF86E080EF76E55
:100D300000010DEF04F0030EE82EFED700001200B4
:047FFC0094EF06F008
:020000040030CA
:0800000000091F1EFF0181FF32
:00000001FF
