:04000000FEEF3FF0E0
:100800000000720ED36E55EC04F020EE13F010EEE3
:1008100004F00C0EDBCFE3FFE806FCE2126A000EE8
:10082000116E1CEF04F01150040FD96EDA6ADF501C
:100830004AEC04F0114A122A1150040FD96EDA6AF8
:10084000DF50D8A426EF04F028EF04F013EF04F0F3
:100850000B0E036E260E026E5E0EE82EFED7022EE3
:10086000FCD7032EFAD705EF04F0FEEF3FF0C00EE1
:10087000F66E080EF76E000EF86E00EE13F010EE36
:100880000DF00900F5CFEEFFE550E150FAE100016F
:1008900001EF04F0016E9EA850EF04F052EF04F057
:1008A0004BEF04F001C0ADFF1200949C948E330E08
:1008B000AF6EB06AB896AC94AC98AB8EAC8A1200AE
:0D08C000303132333435363738390D0A0007
:047FFC0037EF04F067
:020000040030CA
:0800000000091E1EFF0181FF33
:00000001FF
