:0400000067EF3FF077
:107ECA00E3EF3FF0620ED36E956A8C6A93809382D9
:107EDA00F19CF19AF292F090F288F086F28E60505C
:107EEA00000A08E06050010A17E06050020A1DE02B
:107EFA00ACEF3FF0010E8C6EB6EC3FF0020E8C6ECA
:107F0A00B6EC3FF0040E8C6EB6EC3FF0080E8C6EA9
:107F1A00B6EC3FF074EF3FF00F0E8C6EB6EC3FF00C
:107F2A008C6AB6EC3FF074EF3FF0010E8C6EB6EC43
:107F3A003FF0030E8C6EB6EC3FF0070E8C6EB6EC7B
:107F4A003FF00F0E8C6EB6EC3FF074EF3FF0060E6A
:107F5A008C6EB6EC3FF0090E8C6EB6EC3FF074EF07
:107F6A003FF06150000A08E06150010A09E06150DF
:107F7A00020A08E0CAEF3FF0CDEC3FF0CDEC3FF04B
:107F8A00CDEC3FF0CDEC3FF01200CDEC3FF012000B
:107F9A00FA0E626EFA0E636E632ED1EF3FF0622E16
:107FAA00CFEF3FF01200500E646EFA0E626E622E30
:107FBA00DCEF3FF0642EDAEF3FF01200F2B2EAECA7
:107FCA003FF0F0B0F5EC3FF01000F292D8EC3FF041
:107FDA0081B01200602A6050040A01E1606A12004E
:107FEA00F090D8EC3FF081B21200612A6150040A85
:067FFA0001E1616A1200C2
:020000040030CA
:0400000000091E1EB7
:02000500018177
:060008000FC00FE00F40E5
:00000001FF
