:04000000FEEF3FF0E0
:1073A800000EF86E0001E4EF3AF0EB0E026E7D0E6F
:1073B800036EABEC3AF0120093809382800EC76E96
:1073C800280EC66E130EC86E1200C580C5B0EFEF4A
:1073D80039F0F1EF39F0EAEF39F01200C584C5B49D
:1073E800F8EF39F0FAEF39F0F3EF39F01200016EE7
:1073F800ACA201EF3AF003EF3AF0FCEF39F001C02C
:10740800ADFF1200016E01C0C9FFC7B00EEF3AF020
:1074180010EF3AF009EF3AF0030EE82EFED700001D
:107428001200036EE9EC39F0AE0E06EC3AF00350A8
:1074380006EC3AF0025006EC3AF0F2EC39F01200A1
:10744800026EE9EC39F0780E06EC3AF0400E06ECE4
:107458003AF0025006EC3AF0F2EC39F01200026E03
:10746800E9EC39F0780E06EC3AF0000E06EC3AF04A
:10747800025006EC3AF0F2EC39F01200046E0450B7
:10748800B00F33EC3AF003500F0B33EC3AF00338FB
:107498000F0B100933EC3AF01200949C948E330EC3
:1074A800AF6E240EAC6E900EAB6E1A0E016EF80E17
:1074B800E82EFED7012EFCD700D01200939A819AAD
:1074C800C00E00D0E82EFDD7938A280EE82EFED7EE
:1074D80081BA71EF3AF073EF3AF073EF3AF0A80E11
:1074E80000D0E82EFDD71200020E096E860E086E37
:1074F800990EE82EFED7082EFCD7092EFAD70000E1
:10750800AE0E33EC3AF0A60E33EC3AF0AF0E33EC95
:107518003AF02AEC3BF012009CEF3AF009C0F6FF73
:107528000AC0F7FF0800F55049EC3CF0094A0A2A5E
:1075380009C0F6FF0AC0F7FF0800F5500009D8A4F3
:10754800A8EF3AF0AAEF3AF092EF3AF01200B7EF4C
:107558003AF002C0F6FF03C0F7FF0800F550FBEC55
:1075680039F0024A032A02C0F6FF03C0F7FF0800F9
:10757800F5500009D8A4C3EF3AF0C5EF3AF0ADEFE3
:107588003AF01200016E026A939A819A00D000D0F4
:1075980001A0D1EF3AF0D3EF3AF0D4EF3AF0938A62
:1075A800280EE82EFED7938AD8900132022A070EB9
:1075B8000264E1EF3AF0E3EF3AF0C8EF3AF0120074
:1075C800000E1B6E000E1C6E000E1D6E000E1E6E51
:1075D800226A000E216E206A000E1F6E720ED36E94
:1075E800959095929594959695988C6AE0EC39F0DB
:1075F80051EC3AF08C808C88FFEF3AF0FEEF3FF0C8
:10760800400E026E090E15EC3AF0820E046EDE0E84
:10761800E82EFED7042EFCD7020E026E090E15ECDA
:107628003AF0270E026E0A0E15EC3AF0240E026E9E
:107638000C0E15EC3AF0000E026E040E15EC3AF042
:10764800000E026E060E15EC3AF01200076A000EE4
:10765800036E075042EC3AF0066A000E056E000E03
:1076680024EC3AF0054A062A06BE44EF3BF00650E1
:1076780009E1800E055CD8A044EF3BF046EF3BF0F3
:1076880033EF3BF0072A070E07644DEF3BF04FEF4F
:107698003BF02BEF3BF01200026EC586C7A057EFF8
:1076A8003BF059EF3BF052EF3BF0C9CF03F00250EB
:1076B800D8B461EF3BF065EF3BF0016A012A66EF51
:1076C8003BF0016A013A0146C5500118DF0B011869
:1076D800C56EC588C5B873EF3BF075EF3BF06EEF2C
:1076E8003BF003501200036A046A939A819A00D00F
:1076F80000D0938A060EE82EFED700D081AA87EF25
:107708003BF089EF3BF097EF3BF004C001F0010E2E
:10771800026E012A92EF3BF0D8900236012E90EFCC
:107728003BF002500312210EE82EFED70000042A77
:10773800070E0464A2EF3BF0A4EF3BF079EF3BF0B7
:107748000350120003500410D8B4ADEF3BF0AFEF74
:107758003BF0D3EF3BF0010E056EB7EF3BF0D8904E
:1077680003360436052A04AEBCEF3BF0BEEF3BF00F
:10777800B3EF3BF00350015C04500258D8A0C7EFA8
:107788003BF0C9EF3BF0CDEF3BF00350015E0450F6
:10779800025AD89004320332052EBEEF3BF001C0E6
:1077A80001F002C002F0120062EC3AF0CC0EC6EC16
:1077B8003AF0440EC6EC3AF0080E086E9D0E076EBD
:1077C800060EE82EFED7072EFCD7082EFAD762EC55
:1077D8003AF0CC0EC6EC3AF0BE0EC6EC3AF077ECB6
:1077E8003BF00A6E77EC3BF00B6E0A500BC007F0CB
:1077F800086A07C008F0076A0712000E0812040E8C
:10780800096E083408320732092E05EF3CF007C02C
:1078180005F008C006F01200066A000E056E035057
:107828000410D8B41AEF3CF01CEF3CF044EF3CF0E5
:10783800010E076E24EF3CF0D89003360436072A71
:1078480004AE29EF3CF02BEF3CF020EF3CF0D89051
:10785800053606360350015C04500258D8A037EFAD
:107868003CF039EF3CF03EEF3CF00350015E045031
:10787800025A0580D89004320332072E2BEF3CF0D1
:1078880005C001F006C002F01200076E1F0E076463
:1078980050EF3CF052EF3CF05AEF3CF05A0E0764C0
:1078A80058EF3CF05AEF3CF05CEF3CF0200E076ECE
:1078B800086A0750050D210EF324036E7C0EF42090
:1078C800046E08500326000E0422600E0324056E81
:1078D800FF0E0420066E05C0F6FF06C0F7FF08007D
:1078E800F55024EC3AF0082A040E08647EEF3CF0C8
:1078F80080EF3CF05DEF3CF0000E24EC3AF0120013
:107908000550061007100810D8B48DEF3CF08FEF23
:107918003CF0BFEF3CF0010E096E99EF3CF0D890B7
:107928000536063607360836092A08AE9EEF3CF0BB
:10793800A0EF3CF093EF3CF00550015C0650025874
:107948000750035808500458D8A0ADEF3CF0AFEFEB
:107958003CF0B7EF3CF00550015E0650025A075064
:10796800035A0850045AD8900832073206320532B2
:10797800092EA0EF3CF001C001F002C002F003C0E4
:1079880003F004C004F01200126A000E116E0950D0
:107998000A10D8A4D2EF3CF0D4EF3CF0F8EF3CF05A
:1079A800300E49EC3CF017EF3DF011500B0FD96E3B
:1079B800DA6A09C001F00AC002F0046A0A0E036E0E
:1079C800A6EC3BF00150300FDF6E114A122A09C0B5
:1079D80001F00AC002F0046A0A0E036E10EC3CF0D3
:1079E80001C009F002C00AF009500A10D8A4FFEF3C
:1079F8003CF001EF3DF0D9EF3CF00AEF3DF01150BB
:107A08000B0FD96EDA6ADF5049EC3CF01106D8A0AA
:107A18001206112806E11228D8A415EF3DF017EF39
:107A28003DF003EF3DF01200116A000E106E085091
:107A38000910D8A422EF3DF024EF3DF048EF3DF0C7
:107A4800300EFBEC39F067EF3DF010500A0FD96E9D
:107A5800DA6A08C001F009C002F0046A0A0E036E6F
:107A6800A6EC3BF00150300FDF6E104A112A08C017
:107A780001F009C002F0046A0A0E036E10EC3CF033
:107A880001C008F002C009F008500910D8A44FEF4F
:107A98003DF051EF3DF029EF3DF05AEF3DF0105029
:107AA8000A0FD96EDA6ADF50FBEC39F01006D8A05D
:107AB8001106102806E11128D8A465EF3DF067EFFC
:107AC8003DF053EF3DF01200000E096E000E0A6EF5
:107AD800000E0B6E000E0C6E0550061007100810F5
:107AE800D8B479EF3DF07BEF3DF0B1EF3DF0010EFA
:107AF8000D6E85EF3DF0D890053606360736083608
:107B08000D2A08AE8AEF3DF08CEF3DF07FEF3DF097
:107B1800D89009360A360B360C360550015C0650EB
:107B280002580750035808500458D8A09EEF3DF05B
:107B3800A0EF3DF0A9EF3DF00550015E0650025A56
:107B48000750035A0850045A0980D890083207325F
:107B5800063205320D2E8CEF3DF009C001F00AC047
:107B680002F00BC003F00CC004F01200E9EC39F08D
:107B7800AE0E06EC3AF0070E06EC3AF0F2EC39F0ED
:107B8800E9EC39F0AF0E06EC3AF0010E50EC3BF0A0
:107B9800186E010E50EC3BF0196E000E50EC3BF0E5
:107BA8001A6EF2EC39F019C008F0096A0A6A0B6A11
:107BB8000AC00BF009C00AF008C009F0086A18C02A
:107BC8000CF00D6A0E6A0F6A0DC00FF00CC00EF0B3
:107BD8000D6A0C6A08500C10106E09500D10116EC9
:107BE8000A500E10126E0B500F10136E1A50101010
:107BF800146E1150156E1250166E1350176EFF0E3C
:107C08001414046EFF0E1514056E030E1614066E7A
:107C1800000E1714076E120000000000000000009C
:107C28005F00000007000700147F147F14242A7FD8
:107C38002A122313086462364955225000050300AE
:107C480000001C2241000041221C00082A1C2A08AE
:107C580008083E0808005030000008080808080016
:107C68006060000020100804023E5149453E004271
:107C78007F400042615149462141454B3118141259
:107C88007F1027454545393C4A4949300171090566
:107C9800033649494936064949291E0066660000E7
:107CA80000666200000814224100242424242400D1
:107CB800412214080201510906324979413E7E11D8
:107CC80011117E7F494949363E414141227F414158
:107CD800221C7F494949417F090909013E41494917
:107CE8007A7F0808087F00417F41002040413F011A
:107CF8007F081422417F404040407F020C027F7F72
:107D08000408107F3E4141413E7F090909063E4172
:107D180051215E7F09192946264949493201017FC7
:107D280001013F4040403F1F2040201F3F40384056
:107D38003F631408146307087008076151494543F5
:107D48005B4553504552415D205265746972652008
:107D5800656C206465646F2070617261206E756562
:107D68007661206C6563747572612E2E2E0D0A0083
:107D78005B4553504552415D20436F6C6F7175658B
:107D880020656C206465646F20656E20656C2073C7
:107D9800656E736F722E2E2E0D0A005B53454E537F
:107DA800414E444F5D204573746162696C697A6124
:107DB8006E646F206C6563747572612E2E2E0D0AC9
:107DC800000D0A3D3D3D3D3D3D3D3D3D3D3D3D3D7B
:107DD8003D3D3D3D3D3D3D3D3D3D3D3D3D3D3D3DCB
:107DE8000D0A002D2D2D2D2D2D2D2D2D2D2D2D2D2B
:107DF8002D2D2D2D2D2D2D2D2D2D2D2D2D2D2D2DAB
:107E08002D0D0A002020504943313846343535308D
:107E1800202D205072616374696361203320202013
:107E2800200D0A0020204D4F4E49544F5220444502
:107E3800205349474E4F5320564954414C455320EF
:107E4800200D0A005B505245505D2043616C696209
:107E580072616E646F2073656E736F7265732E2E18
:107E68002E0D0A0020202020202020524553554C5A
:107E78005441444F5320202020202020202020201F
:107E88000D0A004252414449434152444941202D80
:107E980020414C41524D410D0A005441515549432E
:107EA8004152444941202D20414C41524D410D0A37
:107EB800004849504F5445524D4941202D20414CCE
:107EC80041524D410D0A00464945425245202D2058
:107ED800414C41524D410D0A004E4F2052455449E4
:107EE800524520454C204445444F002D2D205245F5
:107EF80053554C5441444F53202D2D0020204E4FB4
:107F0800524D414C20202020202020002120425288
:107F180041444943415244494120210021205441D0
:107F2800515549434152444941202100434F4C4F48
:107F380051554520454C204445444F002020204EB3
:107F48004F524D414C202020202000212020204647
:107F58004945425245202020210021204849504FC0
:107F68005445524D49412021005041524120434F30
:107F78004E54494E5541520054656D706572617496
:107F88007572613A20004D4F4E49544F5220564960
:107F980054414C0050756C736F20202020203A20EB
:107FA8000053454E53414E444F2E2E2E00534953F5
:107FB80054454D412E2E2E00505245504152414EAF
:107FC800444F004E4F524D414C0D0A002042504D37
:107FD800202D3E2000204320202D3E200050554CCF
:107FE800534F3A0054454D503A002042504D00201E
:037FF80043000043
:047FFC00D4EF39F095
:020000040030CA
:0800000000091E1EFF0181FF33
:00000001FF
