:04000000FEEF3FF0E0
:106DC800000EF86E000100EF3BF0EB0E026E7D0E38
:106DD800036EBBEC37F0120093809382800EC76E6F
:106DE800280EC66E130EC86E1200C580C5B0FFEF20
:106DF80036F001EF37F0FAEF36F01200C584C5B46B
:106E080008EF37F00AEF37F003EF37F01200016EA2
:106E1800ACA211EF37F013EF37F00CEF37F001C0E9
:106E2800ADFF1200016E01C0C9FFC7B01EEF37F0F9
:106E380020EF37F019EF37F0030EE82EFED70000E9
:106E48001200036EF9EC36F0AE0E16EC37F0035074
:106E580016EC37F0025016EC37F002EC37F012005F
:106E6800026EF9EC36F0780E16EC37F0400E16ECA0
:106E780037F0025016EC37F002EC37F01200026ED1
:106E8800F9EC36F0780E16EC37F0000E16EC37F009
:106E9800025016EC37F002EC37F01200046E045082
:106EA800B00F43EC37F003500F0B43EC37F00338C7
:106EB8000F0B100943EC37F01200949C948E330E9C
:106EC800AF6E240EAC6E900EAB6E1A0E016EF80EFD
:106ED800E82EFED7012EFCD700D01200939A819A93
:106EE800C00E00D0E82EFDD7938A280EE82EFED7D4
:106EF80081BA81EF37F083EF37F083EF37F0A80ED0
:106F080000D0E82EFDD71200020E096E860E086E1C
:106F1800990EE82EFED7082EFCD7092EFAD70000C6
:106F2800AE0E43EC37F0A60E43EC37F0AF0E43EC51
:106F380037F01AEC38F01200ACEF37F009C0F6FF62
:106F48000AC0F7FF0800F55039EC39F0094A0A2A57
:106F580009C0F6FF0AC0F7FF0800F5500009D8A4D9
:106F6800B8EF37F0BAEF37F0A2EF37F01200C7EFFB
:106F780037F002C0F6FF03C0F7FF0800F5500BEC2E
:106F880037F0024A032A02C0F6FF03C0F7FF0800E1
:106F9800F5500009D8A4D3EF37F0D5EF37F0BDEF9F
:106FA80037F01200016E026A939A819A00D000D0DD
:106FB80001A0E1EF37F0E3EF37F0E4EF37F0938A21
:106FC800280EE82EFED7938AD8900132022A070E9F
:106FD8000264F1EF37F0F3EF37F0D8EF37F0120033
:106FE800400E026E090E25EC37F0820E046EDE0E9E
:106FF800E82EFED7042EFCD7020E026E090E25ECF1
:1070080037F0270E026E0A0E25EC37F0240E026EBA
:107018000C0E25EC37F0000E026E040E25EC37F04E
:10702800000E026E060E25EC37F01200076A000EFD
:10703800036E075052EC37F0066A000E056E000E1C
:1070480034EC37F0054A062A06BE34EF38F006500D
:1070580009E1800E055CD8A034EF38F036EF38F03F
:1070680023EF38F0072A070E07643DEF38F03FEFAB
:1070780038F01BEF38F01200026EC586C7A047EF44
:1070880038F049EF38F042EF38F0C9CF03F002503A
:10709800D8B451EF38F055EF38F0016A012A56EFAD
:1070A80038F0016A013A0146C5500118DF0B011892
:1070B800C56EC588C5B863EF38F065EF38F05EEF88
:1070C80038F003501200036A046A939A819A00D038
:1070D80000D0938A060EE82EFED700D081AA77EF5B
:1070E80038F079EF38F087EF38F004C001F0010E7E
:1070F800026E012A82EF38F0D8900236012E80EF16
:1071080038F002500312210EE82EFED70000042AA0
:10711800070E046492EF38F094EF38F069EF38F016
:107128000350120003500410D8B49DEF38F09FEFBD
:1071380038F0C3EF38F0010E056EA7EF38F0D8909D
:1071480003360436052A04AEACEF38F0AEEF38F05B
:10715800A3EF38F00350015C04500258D8A0B7EFF1
:1071680038F0B9EF38F0BDEF38F00350015E045045
:10717800025AD89004320332052EAEEF38F001C01F
:1071880001F002C002F0120072EC37F0CC0ED6EC1F
:1071980037F0440ED6EC37F0080E086E9D0E076ED9
:1071A800060EE82EFED7072EFCD7082EFAD772EC6B
:1071B80037F0CC0ED6EC37F0BE0ED6EC37F067ECD5
:1071C80038F00A6E67EC38F00B6E0A500BC007F007
:1071D800086A07C008F0076A0712000E0812040EB2
:1071E800096E083408320732092EF5EF38F007C067
:1071F80005F008C006F01200066A000E056E03507E
:107208000410D8B40AEF39F00CEF39F034EF39F044
:10721800010E076E14EF39F0D89003360436072AAA
:1072280004AE19EF39F01BEF39F010EF39F0D890B0
:10723800053606360350015C04500258D8A027EFE3
:1072480039F029EF39F02EEF39F00350015E045080
:10725800025A0580D89004320332072E1BEF39F00A
:1072680005C001F006C002F01200076E1F0E076489
:1072780040EF39F042EF39F04AEF39F05A0E07641F
:1072880048EF39F04AEF39F04CEF39F0200E076E2D
:10729800086A0750050D210EF324036E7C0EF420B6
:1072A800046E08500326000E0422600E0324056EA7
:1072B800FF0E0420066E05C0F6FF06C0F7FF0800A3
:1072C800F55034EC37F0082A040E08646EEF39F0F4
:1072D80070EF39F04DEF39F0000E34EC37F0120052
:1072E8000550061007100810D8B47DEF39F07FEF6D
:1072F80039F0AFEF39F0010E096E89EF39F0D89007
:107308000536063607360836092A08AE8EEF39F0F4
:1073180090EF39F083EF39F00550015C06500258C0
:107328000750035808500458D8A09DEF39F09FEF34
:1073380039F0A7EF39F00550015E0650025A0750A0
:10734800035A0850045AD8900832073206320532D8
:10735800092E90EF39F001C001F002C002F003C01D
:1073680003F004C004F01200126A000E116E0950F6
:107378000A10D8A4C2EF39F0C4EF39F0E8EF39F0B9
:10738800300E39EC39F007EF3AF011500B0FD96E87
:10739800DA6A09C001F00AC002F0046A0A0E036E34
:1073A80096EC38F00150300FDF6E114A122A09C0EE
:1073B80001F00AC002F0046A0A0E036E00EC39F00C
:1073C80001C009F002C00AF009500A10D8A4EFEF72
:1073D80039F0F1EF39F0C9EF39F0FAEF39F011501F
:1073E8000B0FD96EDA6ADF5039EC39F01106D8A0E4
:1073F8001206112806E11228D8A405EF3AF007EF83
:107408003AF0F3EF39F01200116A000E106E0850CE
:107418000910D8A412EF3AF014EF3AF038EF3AF026
:10742800300E0BEC37F057EF3AF010500A0FD96EC8
:10743800DA6A08C001F009C002F0046A0A0E036E95
:1074480096EC38F00150300FDF6E104A112A08C050
:1074580001F009C002F0046A0A0E036E00EC39F06C
:1074680001C008F002C009F008500910D8A43FEF85
:107478003AF041EF3AF019EF3AF04AEF3AF010508B
:107488000A0FD96EDA6ADF500BEC37F01006D8A075
:107498001106102806E11128D8A455EF3AF057EF45
:1074A8003AF043EF3AF01200000E096E000E0A6E31
:1074B800000E0B6E000E0C6E05500610071008101B
:1074C800D8B469EF3AF06BEF3AF0A1EF3AF0010E59
:1074D8000D6E75EF3AF0D890053606360736083641
:1074E8000D2A08AE7AEF3AF07CEF3AF06FEF3AF0F7
:1074F800D89009360A360B360C360550015C065012
:1075080002580750035808500458D8A08EEF3AF094
:1075180090EF3AF099EF3AF00550015E0650025AA2
:107528000750035A0850045A0980D8900832073285
:10753800063205320D2E7CEF3AF009C001F00AC080
:1075480002F00BC003F00CC004F01200F9EC36F0A6
:10755800AE0E16EC37F0070E16EC37F002EC37F0EB
:10756800F9EC36F0AF0E16EC37F0010E40EC38F0BF
:10757800186E010E40EC38F0196E000E40EC38F031
:107588001A6E02EC37F019C008F0096A0A6A0B6A29
:107598000AC00BF009C00AF008C009F0086A18C050
:1075A8000CF00D6A0E6A0F6A0DC00FF00CC00EF0D9
:1075B8000D6A0C6A08500C10106E09500D10116EEF
:1075C8000A500E10126E0B500F10136E1A50101036
:1075D800146E1150156E1250166E1350176EFF0E62
:1075E8001414046EFF0E1514056E030E1614066EA1
:1075F800000E1714076E1200000E1D6E000E1E6E90
:10760800000E1F6E000E206E2A6A000E296E286A70
:10761800000E276E720ED36E95909592959495965E
:1076280095988C6AF0EC36F061EC37F08C808C928F
:107638008C948C968C988C8488EC37F01AEC38F003
:107648000F0E036E020E52EC37F0C00E096E7F0E5D
:107658000A6EA0EC37F0140E036E040E52EC37F0ED
:10766800B50E096E7F0E0A6EA0EC37F0C90E026ED9
:107678007D0E036EBBEC37F02C0E026E7E0E036E91
:10768800BBEC37F00C0E026E7E0E036EBBEC37F0CF
:10769800CB0E026E7D0E036EBBEC37F04C0E026E05
:1076A8007E0E036EBBEC37F0F4EC37F00B0E1C6E5D
:1076B800260E1B6E5E0EE82EFED71B2EFCD71C2E48
:1076C800FAD78C928C948C968C988C828C861AEC37
:1076D80038F0140E036E020E52EC37F08E0E096E5F
:1076E8007F0E0A6EA0EC37F00A0E036E040E52EC01
:1076F80037F0340E096E7F0E0A6EA0EC37F0780E64
:10770800026E7D0E036EBBEC37F0AAEC3AF004C0B3
:1077180023F005C024F006C025F007C026F0020EAD
:107728001C6E040E1B6EBA0EE82EFED71B2EFCD75D
:107738001C2EFAD700D026500DE1800E235C380E9F
:107748002458010E2558D8A0ACEF3BF0AEEF3BF023
:1077580089EF3BF08C928C948C968C988C841AECE4
:1077680038F0140E036E020E52EC37F0A90E096EB3
:107778007F0E0A6EA0EC37F0050E036E040E52EC75
:1077880037F0E10E096E7E0E0A6EA0EC37F0A30EFC
:10779800026E7D0E036EBBEC37F0000E1D6E000E00
:1077A8001E6E000E1F6E000E206E226AAAEC3AF0C2
:1077B80004501D2605501E2206501F220750202265
:1077C800020E1C6E040E1B6EBA0EE82EFED71B2E80
:1077D800FCD71C2EFAD700D0222A130E2264F7EF0A
:1077E8003BF0F9EF3BF0DAEF3BF01DC001F01EC0B3
:1077F80002F01FC003F020C004F0140E056E000E46
:10780800066E000E076E000E086E58EC3AF001C0C6
:1078180023F002C024F003C025F004C026F023C0E2
:1078280001F024C002F025C003F026C004F0280EA1
:10783800056E000E066E000E076E000E086E74ECE4
:1078480039F0410E0124296E000E02202A6E2A50BA
:1078580009E16F0E295CD8A034EF3CF036EF3CF01C
:1078680039EF3CF02A6A480E296EC8EC38F005C09A
:1078780027F006C028F0216A2A5007E13C0E295C4F
:10788800D8B049EF3CF04BEF3CF04DEF3CF0010E27
:10789800216E2A5009E1650E295CD8A056EF3CF00C
:1078A80058EF3CF05AEF3CF0010E216E285007E1EA
:1078B800220E275CD8B063EF3CF065EF3CF067EF31
:1078C8003CF0010E216E285009E1260E275CD8A055
:1078D80070EF3CF072EF3CF074EF3CF0010E216E5B
:1078E8008C928C948C968C982150D8B47EEF3CF076
:1078F80080EF3CF083EF3CF08C8884EF3CF08C8286
:107908001AEC38F0190E036E000E52EC37F0F30E35
:10791800096E7E0E0A6EA0EC37F0050E036E020E9D
:1079280052EC37F0E50E096E7F0E0A6EA0EC37F0C8
:1079380029C009F02AC00AF0B8EC39F0F20E096E35
:107948007F0E0A6EA0EC37F0050E036E030E52ECA4
:1079580037F02A5007E13C0E295CD8B0B6EF3CF06E
:10796800B8EF3CF0C0EF3CF0140E096E7F0E0A6EC3
:10797800A0EC37F0D9EF3CF02A5009E1650E295CFC
:10798800D8A0C9EF3CF0CBEF3CF0D3EF3CF0240E8D
:10799800096E7F0E0A6EA0EC37F0D9EF3CF0040EAA
:1079A800096E7F0E0A6EA0EC37F0050E036E050E09
:1079B80052EC37F0EC0E096E7F0E0A6EA0EC37F031
:1079C80027C009F028C00AF0B8EC39F0F70E096EA4
:1079D8007F0E0A6EA0EC37F0050E036E060E52EC11
:1079E80037F0285007E1220E275CD8B0FEEF3CF0B4
:1079F80000EF3DF008EF3DF0620E096E7F0E0A6E53
:107A0800A0EC37F021EF3DF0285009E1260E275C65
:107A1800D8A011EF3DF013EF3DF01BEF3DF0530EF2
:107A2800096E7F0E0A6EA0EC37F021EF3DF0440E90
:107A3800096E7F0E0A6EA0EC37F0880E026E7E0E7D
:107A4800036EBBEC37F0E9EC36F06C0E026E7E0E7E
:107A5800036EBBEC37F0E9EC36F09C0E026E7F0E3D
:107A6800036EBBEC37F029C008F02AC009F008EC17
:107A78003AF0D40E026E7F0E036EBBEC37F02A503C
:107A880007E13C0E295CD8B04CEF3DF04EEF3DF0DD
:107A980056EF3DF08B0E026E7E0E036EBBEC37F098
:107AA8006FEF3DF02A5009E1650E295CD8A05FEF21
:107AB8003DF061EF3DF069EF3DF0A20E026E7E0EE3
:107AC800036EBBEC37F06FEF3DF0CB0E026E7F0E0E
:107AD800036EBBEC37F0800E026E7F0E036EBBECBC
:107AE80037F027C008F028C009F008EC3AF0DD0E9E
:107AF800026E7F0E036EBBEC37F0285007E1220EB2
:107B0800275CD8B08AEF3DF08CEF3DF094EF3DF064
:107B1800B90E026E7E0E036EBBEC37F0ADEF3DF092
:107B2800285009E1260E275CD8A09DEF3DF09FEF75
:107B38003DF0A7EF3DF0CF0E026E7E0E036EBBEC5C
:107B480037F0ADEF3DF0CB0E026E7F0E036EBBEC4F
:107B580037F0E9EC36F0330E1C6EBB0E1B6EE00EF0
:107B6800E82EFED71B2EFCD71C2EFAD78C928C94AD
:107B78008C968C988C841AEC38F00F0E036E030EDA
:107B880052EC37F0E40E096E7E0E0A6EA0EC37F068
:107B98000F0E036E050E52EC37F0710E096E7F0E54
:107BA8000A6EA0EC37F0480E026E7D0E036EBBEC39
:107BB80037F0AAEC3AF004C023F005C024F006C060
:107BC80025F007C026F0020E1C6E040E1B6EBA0EBE
:107BD800E82EFED71B2EFCD71C2EFAD700D0265035
:107BE800251009E1210E235C4E0E2458D8B0FFEF72
:107BF8003DF001EF3EF0DDEF3DF0060E1C6E130E7A
:107C08001B6EAE0EE82EFED71B2EFCD71C2EFAD705
:107C180065EF3BF0FEEF3FF00000000000000000C1
:107C28005F00000007000700147F147F14242A7FD8
:107C38002A122313086462364955225000050300AE
:107C480000001C2241000041221C00082A1C2A08AE
:107C580008083E0808005030000008080808080016
:107C68006060000020100804023E5149453E004271
:107C78007F400042615149462141454B3118141259
:107C88007F1027454545393C4A4949300171090566
:107C9800033649494936064949291E0066660000E7
:107CA80000666200000814224100242424242400D1
:107CB800412214080201510906324979413E7E11D8
:107CC80011117E7F494949363E414141227F414158
:107CD800221C7F494949417F090909013E41494917
:107CE8007A7F0808087F00417F41002040413F011A
:107CF8007F081422417F404040407F020C027F7F72
:107D08000408107F3E4141413E7F090909063E4172
:107D180051215E7F09192946264949493201017FC7
:107D280001013F4040403F1F2040201F3F40384056
:107D38003F631408146307087008076151494543F5
:107D48005B4553504552415D205265746972652008
:107D5800656C206465646F2070617261206E756562
:107D68007661206C6563747572612E2E2E0D0A0083
:107D78005B4553504552415D20436F6C6F7175658B
:107D880020656C206465646F20656E20656C2073C7
:107D9800656E736F722E2E2E0D0A005B53454E537F
:107DA800414E444F5D204573746162696C697A6124
:107DB8006E646F206C6563747572612E2E2E0D0AC9
:107DC800000D0A3D3D3D3D3D3D3D3D3D3D3D3D3D7B
:107DD8003D3D3D3D3D3D3D3D3D3D3D3D3D3D3D3DCB
:107DE8000D0A002D2D2D2D2D2D2D2D2D2D2D2D2D2B
:107DF8002D2D2D2D2D2D2D2D2D2D2D2D2D2D2D2DAB
:107E08002D0D0A002020504943313846343535308D
:107E1800202D205072616374696361203320202013
:107E2800200D0A0020204D4F4E49544F5220444502
:107E3800205349474E4F5320564954414C455320EF
:107E4800200D0A005B505245505D2043616C696209
:107E580072616E646F2073656E736F7265732E2E18
:107E68002E0D0A0020202020202020524553554C5A
:107E78005441444F5320202020202020202020201F
:107E88000D0A004252414449434152444941202D80
:107E980020414C41524D410D0A005441515549432E
:107EA8004152444941202D20414C41524D410D0A37
:107EB800004849504F5445524D4941202D20414CCE
:107EC80041524D410D0A00464945425245202D2058
:107ED800414C41524D410D0A004E4F2052455449E4
:107EE800524520454C204445444F002D2D205245F5
:107EF80053554C5441444F53202D2D0020204E4FB4
:107F0800524D414C20202020202020002120425288
:107F180041444943415244494120210021205441D0
:107F2800515549434152444941202100434F4C4F48
:107F380051554520454C204445444F002020204EB3
:107F48004F524D414C202020202000212020204647
:107F58004945425245202020210021204849504FC0
:107F68005445524D49412021005041524120434F30
:107F78004E54494E5541520054656D706572617496
:107F88007572613A20004D4F4E49544F5220564960
:107F980054414C0050756C736F20202020203A20EB
:107FA8000053454E53414E444F2E2E2E00534953F5
:107FB80054454D412E2E2E00505245504152414EAF
:107FC800444F004E4F524D414C0D0A002042504D37
:107FD800202D3E2000204320202D3E200050554CCF
:107FE800534F3A0054454D503A002042504D00201E
:037FF80043000043
:047FFC00E4EF36F088
:020000040030CA
:0800000000091E1EFF0181FF33
:00000001FF
