:04000000FEEF3FF0E0
:100800000000720ED36E95908C9013EC05F0030EE1
:100810001F6E080E1E6E770EE82EFED71E2EFCD71A
:100820001F2EFAD7000042EC04F012C020F013C0D3
:1008300021F0215009E11E0E205CD8A022EF04F027
:1008400024EF04F032EF04F0215007E1250E205C84
:10085000D8B02DEF04F02FEF04F032EF04F08C80CD
:1008600033EF04F08C90060E1F6E130E1E6EAE0E4C
:10087000E82EFED71E2EFCD71F2EFAD713EF04F05A
:10088000FEEF3FF0000E81EC04F006C018F007C048
:1008900019F018C001F019C002F0036A046AF40EDE
:1008A000056E010E066E000E076E000E086EBEECA1
:1008B00004F001C01AF002C01BF003C01CF004C019
:1008C0001DF01AC014F01BC015F01CC016F01DC09E
:1008D00017F00B0E71EF04F0D89017321632153264
:1008E0001432E82E6CEF04F014C01AF015C01BF09F
:1008F00016C01CF017C01DF01AC012F01BC013F078
:1009000012000C6E000E0D6E000E0E6E000E0F6EBD
:10091000000E106E116A0C50F3EC04F001500D261D
:1009200002500E22000E0F22000E1022030E086E3F
:10093000980EE82EFED7082EFCD7112A070E116458
:10094000A4EF04F0A6EF04F08BEF04F00DC008F064
:100950000EC009F00FC00AF010C00BF0040EB6EF85
:1009600004F0D8900B320A3209320832E82EB1EF87
:1009700004F008C006F009C007F01200000E096E6E
:10098000000E0A6E000E0B6E000E0C6E01A0CBEF77
:1009900004F0CDEF04F0D5EF04F005500926065021
:1009A0000A2207500B2208500C22D8900536063632
:1009B00007360836D8900432033202320132015031
:1009C000021003100410D8A4E8EF04F0EAEF04F0DA
:1009D000C6EF04F009C001F00AC002F00BC003F03A
:1009E0000CC004F01200056E05C003F00F0E0316D4
:1009F000D8900336D8900336C250C30B0310C26E92
:100A0000210EE82EFED70000C282C2B20AEF05F026
:100A10000CEF05F005EF05F0C450036EC350016EF6
:100A200003C002F0120092800E0EC16EBD0EC06EA9
:100A3000010EC26E0D0E016EFC0EE82EFED7012EC9
:0A0A4000FCD71200000101EF04F0E2
:047FFC0022EF05F07B
:020000040030CA
:0800000000091E1EFF0181FF33
:00000001FF
